{"address":"0x971c9B6A5bEECcbA29c294A851712437a349A9D6","bytecode":"0x61010060405234801561001157600080fd5b506040516109163803806109168339818101604052606081101561003457600080fd5b5080516020820151604090920151606082811b6001600160601b031990811660805260a08590523380831b60c0529183901b1660e0526001600160a01b0392831693929091166108646100b2600039806105ac5250806104e25250806102885280610482525080610313528061057052806106a552506108646000f3fe608060405234801561001057600080fd5b50600436106100675760003560e01c80639e34070f116100505780639e34070f14610121578063ec144dc714610152578063fc0c546a1461016f57610067565b80632e7ba6ef1461006c5780632eb4a7ab14610107575b600080fd5b6101056004803603608081101561008257600080fd5b81359173ffffffffffffffffffffffffffffffffffffffff60208201351691604082013591908101906080810160608201356401000000008111156100c657600080fd5b8201836020820111156100d857600080fd5b803590602001918460208302840111640100000000831117156100fa57600080fd5b5090925090506101a0565b005b61010f610480565b60408051918252519081900360200190f35b61013e6004803603602081101561013757600080fd5b50356104a4565b604080519115158252519081900360200190f35b6101056004803603602081101561016857600080fd5b50356104ca565b6101776106a3565b6040805173ffffffffffffffffffffffffffffffffffffffff9092168252519081900360200190f35b6101a9856104a4565b156101ff576040517f08c379a00000000000000000000000000000000000000000000000000000000081526004018080602001828103825260288152602001806107986028913960400191505060405180910390fd5b6000858585604051602001808481526020018373ffffffffffffffffffffffffffffffffffffffff1660601b815260140182815260200193505050506040516020818303038152906040528051906020012090506102b38383808060200260200160405190810160405280939291908181526020018383602002808284376000920191909152507f000000000000000000000000000000000000000000000000000000000000000092508591506106c79050565b610308576040517f08c379a00000000000000000000000000000000000000000000000000000000081526004018080602001828103825260218152602001806107c06021913960400191505060405180910390fd5b61031186610770565b7f000000000000000000000000000000000000000000000000000000000000000073ffffffffffffffffffffffffffffffffffffffff1663a9059cbb86866040518363ffffffff1660e01b8152600401808373ffffffffffffffffffffffffffffffffffffffff16815260200182815260200192505050602060405180830381600087803b1580156103a257600080fd5b505af11580156103b6573d6000803e3d6000fd5b505050506040513d60208110156103cc57600080fd5b5051610423576040517f08c379a00000000000000000000000000000000000000000000000000000000081526004018080602001828103825260238152602001806107e16023913960400191505060405180910390fd5b6040805187815273ffffffffffffffffffffffffffffffffffffffff8716602082015280820186905290517f4ec90e965519d92681267467f775ada5bd214aa92c0dc93d90a5e880ce9ed0269181900360600190a1505050505050565b7f000000000000000000000000000000000000000000000000000000000000000081565b6101008104600090815260208190526040902054600160ff9092169190911b9081161490565b3373ffffffffffffffffffffffffffffffffffffffff7f0000000000000000000000000000000000000000000000000000000000000000161461056e57604080517f08c379a000000000000000000000000000000000000000000000000000000000815260206004820152601f60248201527f4d65726b6c654469737472696275746f723a206e6f74206465706c6f79657200604482015290519081900360640190fd5b7f000000000000000000000000000000000000000000000000000000000000000073ffffffffffffffffffffffffffffffffffffffff1663a9059cbb7f0000000000000000000000000000000000000000000000000000000000000000836040518363ffffffff1660e01b8152600401808373ffffffffffffffffffffffffffffffffffffffff16815260200182815260200192505050602060405180830381600087803b15801561061f57600080fd5b505af1158015610633573d6000803e3d6000fd5b505050506040513d602081101561064957600080fd5b50516106a0576040517f08c379a000000000000000000000000000000000000000000000000000000000815260040180806020018281038252602b815260200180610804602b913960400191505060405180910390fd5b50565b7f000000000000000000000000000000000000000000000000000000000000000081565b600081815b85518110156107655760008682815181106106e357fe5b6020026020010151905080831161072a578281604051602001808381526020018281526020019250505060405160208183030381529060405280519060200120925061075c565b808360405160200180838152602001828152602001925050506040516020818303038152906040528051906020012092505b506001016106cc565b509092149392505050565b610100810460009081526020819052604090208054600160ff9093169290921b909117905556fe4d65726b6c654469737472696275746f723a2044726f7020616c726561647920636c61696d65642e4d65726b6c654469737472696275746f723a20496e76616c69642070726f6f662e4d65726b6c654469737472696275746f723a205472616e73666572206661696c65642e4d65726b6c654469737472696275746f723a20636f6c6c656374556e636c61696d6564206661696c65642ea2646970667358221220f1f14050de8e35d62fbe2fbd5cea8f0b0f7cb07bba6c53fa84a3e6835142edb964736f6c63430007060033","abi":[{"inputs":[{"internalType":"address","name":"token_","type":"address"},{"internalType":"bytes32","name":"merkleRoot_","type":"bytes32"},{"internalType":"address","name":"beneficiary_","type":"address"}],"stateMutability":"nonpayable","type":"constructor"},{"anonymous":false,"inputs":[{"indexed":false,"internalType":"uint256","name":"index","type":"uint256"},{"indexed":false,"internalType":"address","name":"account","type":"address"},{"indexed":false,"internalType":"uint256","name":"amount","type":"uint256"}],"name":"Claimed","type":"event"},{"inputs":[{"internalType":"uint256","name":"index","type":"uint256"},{"internalType":"address","name":"account","type":"address"},{"internalType":"uint256","name":"amount","type":"uint256"},{"internalType":"bytes32[]","name":"merkleProof","type":"bytes32[]"}],"name":"claim","outputs":[],"stateMutability":"nonpayable","type":"function"},{"inputs":[{"internalType":"uint256","name":"amount","type":"uint256"}],"name":"collectUnclaimed","outputs":[],"stateMutability":"nonpayable","type":"function"},{"inputs":[{"internalType":"uint256","name":"index","type":"uint256"}],"name":"isClaimed","outputs":[{"internalType":"bool","name":"","type":"bool"}],"stateMutability":"view","type":"function"},{"inputs":[],"name":"merkleRoot","outputs":[{"internalType":"bytes32","name":"","type":"bytes32"}],"stateMutability":"view","type":"function"},{"inputs":[],"name":"token","outputs":[{"internalType":"address","name":"","type":"address"}],"stateMutability":"view","type":"function"}]}